:020000040800F2
:100000007006002061020008690200086B02000807
:100010006D0200086F020008710200080000000075
:100020000000000000000000000000007302000853
:100030007502000800000000770200087103000844
:100040007B0200087B0200087B0200087B0200089C
:100050007B0200087B0200087B0200087B0200088C
:100060007B0200087B0200087B0200087B0200087C
:100070007B0200087B0200087B0200087B0200086C
:100080007B0200087B0200087B02000800000000E1
:100090000000000000000000000000007B020008DB
:1000A0007B0200087B0200087B0200087B0200083C
:1000B0007B0200087B0200087B0200087B0200082C
:1000C0007B0200087B0200087B0200087B0200081C
:1000D0007B0200087B0200087B0200080000000091
:1000E0007B0200087B0200087B0200080000000081
:1000F0000000000000000000000000007B0200087B
:10010000000000007B0200087B0200087B02000860
:1001100000000000000000000000000000000000DF
:100120007B0200087B0200087B0200087B020008BB
:100130007B0200080000000000000000000000003A
:100140000000000000000000000000007B0200082A
:100150007B0200087B0200087B0200087B0200088B
:100160007B0200087B020008000000000000000085
:10017000000000000000000000000000000000007F
:10018000000000007B0200080000000000000000EA
:100190007B02000800F002F800F052F814A696E87E
:1001A000000CB244B344DA4501D100F049F8BAE892
:1001B0000F000FA696E83000A5EB040504EB060738
:1001C000AAEB0704A7F101074FEA15154FEA34140B
:1001D000A4F10104AC4201D300F032F813F0010F96
:1001E00018BFFB1A43F0010300F001F8DBE71847E2
:1001F000A8040000C8040000103A24BF78C878C1E1
:10020000FAD8520724BF30C830C144BF04680C601C
:1002100070470000704700000023002400250026DE
:10022000103A28BF78C1FBD8520728BF30C148BF59
:100230000B6070471FB500F01AFA1FBD10B510BD56
:1002400000F031F81146FFF7F5FF00F0A5F900F0D6
:100250004FF803B4FFF7F2FF03BC00F057F80000BB
:100260000948804709480047FEE7FEE7FEE7FEE74A
:10027000FEE7FEE7FEE7FEE7FEE7FEE70448054986
:10028000054A064B70470000C104000895010008AC
:100290007000002070060020700200207002002014
:1002A000704770477047754600F02CF8AE46050061
:1002B0006946534620F00700854618B020B5FFF781
:1002C000DDFFBDE820404FF000064FF000074FF083
:1002D00000084FF0000BAC46ACE8C009ACE8C00920
:1002E000ACE8C009ACE8C00921F007018D467047B1
:1002F00010B50446AFF300802046BDE81040FFF77C
:10030000A8BF0000004870470800002001491820DD
:10031000ABBEFEE7260002007047000080B582B049
:10032000009000980138B0F1807F03D3FFE70120EF
:10033000019019E0009801384EF21401CEF200014C
:1003400008604FF0FF300F2100F0C4F84EF21801A2
:10035000CEF20001002008604EF21002CEF2000240
:10036000072111600190FFE7019802B080BD0000F5
:1003700040F26C01C2F2000108680130086040F2EE
:100380006801C2F20001086801300860704700008F
:1003900086B0002105910491022003900291019002
:1003A00043F60800C4F20200006800F00C0005905B
:1003B0000598009040B1FFE7009804280ED0FFE7B1
:1003C0000098082814D059E040F20001C2F2000160
:1003D00042F20040C0F2F400086059E040F200012F
:1003E000C2F2000147F64000C0F27D1008604FE005
:1003F00043F60400C4F202000168C1F38051029187
:10040000006800F03F000190029888B1FFE7019971
:1004100047F64000C0F27D10B0FBF1F043F6040156
:10042000C4F202010968C1F388114843049010E046
:10043000019942F20040C0F2F400B0FBF1F043F643
:100440000401C4F202010968C1F388114843049011
:10045000FFE743F60400C4F20200006800F44031F4
:10046000022000EBD130039004980399B0FBF1F027
:1004700040F20001C2F20001086009E040F2000110
:10048000C2F2000142F20040C0F2F4000860FFE74F
:1004900043F60800C4F202000068C0B2010940F24D
:1004A0008860C0F60000405C0590059A40F20001AB
:1004B000C2F200010868D040086006B07047000032
:1004C0004EF68851CEF20001086840F470000860D2
:1004D0007047000082B08DF8070000919DF9070079
:1004E00000280AD4FFE7009800019DF907104EF29A
:1004F0000042CEF2000288540BE0009800019DF803
:10050000071001F00F014EF61452CEF2000288548B
:10051000FFE702B07047000081B0009040F2680130
:10052000C2F2000100200860FFE740F26800C2F25A
:10053000000000680099884201D1FFE700E0F4E77D
:1005400001B0704780B586B0059046F67F70ADF873
:10055000100046F66650C0F27D70039040F23F6096
:10056000C4F65B700290059902A8425C1421C4F2A3
:1005700002010091086810430860FA200190FFF71B
:10058000CBFF009A0198116821F07F011160FFF7FD
:10059000C3FF06B080BD000080B584B0002003908A
:1005A000FFF7F6FE00F04CF843F63001C4F202010A
:1005B000086840F0030008600021C4F202010868E6
:1005C00041F255521043086040F20041C4F202016A
:1005D000086820F028000860FFE740F21040C4F2ED
:1005E000020000688007002810D5FFE70020029075
:1005F000FFE70298092808DCFFE70298FFF7A2FF4F
:10060000FFE7029801300290F3E7FFE740F2104065
:10061000C4F2020000684007002810D5FFE7092057
:100620000190FFE70198002808D4FFE70198FFF741
:1006300089FFFFE7019801380190F3E7FFE7CCE776
:1006400080B582B040F20000C2F20000006844F6BB
:10065000D351C1F26201A0FB01108009FFF75EFED9
:100660000190019808B1FFE7FFE702B080BDF1EE0D
:10067000100A4FF6FF71C0F2C03120EA010040F0CD
:100680004070E1EE100A704700000000000000001A
:100690000102030406070809B8060008000000204C
:1006A00004000000F8010008BC0600080800002053
:0C06B00068060000180200080024F40096
:04000005080002618C
:00000001FF
